{
  "_format": "hh-sol-artifact-1",
  "contractName": "MyFirstContract",
  "sourceName": "contracts/MyFirstContract.sol",
  "abi": [
    {
      "inputs": [
        {
          "internalType": "string",
          "name": "_name",
          "type": "string"
        },
        {
          "internalType": "uint256",
          "name": "_mobileNumber",
          "type": "uint256"
        }
      ],
      "name": "addMobileNumber",
      "outputs": [],
      "stateMutability": "nonpayable",
      "type": "function"
    },
    {
      "inputs": [
        {
          "internalType": "string",
          "name": "_name",
          "type": "string"
        }
      ],
      "name": "addName",
      "outputs": [],
      "stateMutability": "nonpayable",
      "type": "function"
    },
    {
      "inputs": [
        {
          "internalType": "uint256",
          "name": "_num1",
          "type": "uint256"
        },
        {
          "internalType": "uint256",
          "name": "_num2",
          "type": "uint256"
        }
      ],
      "name": "addNumbers",
      "outputs": [],
      "stateMutability": "nonpayable",
      "type": "function"
    },
    {
      "inputs": [
        {
          "internalType": "uint256",
          "name": "_num",
          "type": "uint256"
        }
      ],
      "name": "changeNumber",
      "outputs": [],
      "stateMutability": "nonpayable",
      "type": "function"
    },
    {
      "inputs": [
        {
          "internalType": "string",
          "name": "_name",
          "type": "string"
        }
      ],
      "name": "getMobileNumber",
      "outputs": [
        {
          "internalType": "uint256",
          "name": "",
          "type": "uint256"
        }
      ],
      "stateMutability": "view",
      "type": "function"
    },
    {
      "inputs": [
        {
          "internalType": "uint256",
          "name": "_index",
          "type": "uint256"
        }
      ],
      "name": "getName",
      "outputs": [
        {
          "internalType": "string",
          "name": "",
          "type": "string"
        }
      ],
      "stateMutability": "view",
      "type": "function"
    },
    {
      "inputs": [],
      "name": "getNamesLength",
      "outputs": [
        {
          "internalType": "uint256",
          "name": "",
          "type": "uint256"
        }
      ],
      "stateMutability": "view",
      "type": "function"
    },
    {
      "inputs": [],
      "name": "getNumber",
      "outputs": [
        {
          "internalType": "uint256",
          "name": "",
          "type": "uint256"
        }
      ],
      "stateMutability": "view",
      "type": "function"
    },
    {
      "inputs": [
        {
          "internalType": "uint256",
          "name": "_num",
          "type": "uint256"
        }
      ],
      "name": "getNumberMultiplied",
      "outputs": [
        {
          "internalType": "uint256",
          "name": "",
          "type": "uint256"
        }
      ],
      "stateMutability": "view",
      "type": "function"
    },
    {
      "inputs": [
        {
          "internalType": "string",
          "name": "",
          "type": "string"
        }
      ],
      "name": "phoneNumbers",
      "outputs": [
        {
          "internalType": "uint256",
          "name": "",
          "type": "uint256"
        }
      ],
      "stateMutability": "view",
      "type": "function"
    }
  ],
  "bytecode": "0x60806040526000805534801561001457600080fd5b50610869806100246000396000f3fe608060405234801561001057600080fd5b506004361061009e5760003560e01c80636b8ff574116100665780636b8ff574146102bb5780637ba1eab31461036257806385014c9e14610427578063ef9fc50b146104f6578063f2c9ecd81461052e5761009e565b806307391dd6146100a357806311456b47146100d157806314b3ee681461018c578063160395401461025b57806335f669081461029d575b600080fd5b6100cf600480360360208110156100b957600080fd5b810190808035906020019092919050505061054c565b005b61018a600480360360208110156100e757600080fd5b810190808035906020019064010000000081111561010457600080fd5b82018360208201111561011657600080fd5b8035906020019184600183028401116401000000008311171561013857600080fd5b91908080601f016020809104026020016040519081016040528093929190818152602001838380828437600081840152601f19601f82011690508083019250505050505050919291929050505061055a565b005b610245600480360360208110156101a257600080fd5b81019080803590602001906401000000008111156101bf57600080fd5b8201836020820111156101d157600080fd5b803590602001918460018302840111640100000000831117156101f357600080fd5b91908080601f016020809104026020016040519081016040528093929190818152602001838380828437600081840152601f19601f820116905080830192505050505050509192919290505050610599565b6040518082815260200191505060405180910390f35b6102876004803603602081101561027157600080fd5b810190808035906020019092919050505061060c565b6040518082815260200191505060405180910390f35b6102a561061a565b6040518082815260200191505060405180910390f35b6102e7600480360360208110156102d157600080fd5b8101908080359060200190929190505050610627565b6040518080602001828103825283818151815260200191508051906020019080838360005b8381101561032757808201518184015260208101905061030c565b50505050905090810190601f1680156103545780820380516001836020036101000a031916815260200191505b509250505060405180910390f35b6104256004803603604081101561037857600080fd5b810190808035906020019064010000000081111561039557600080fd5b8201836020820111156103a757600080fd5b803590602001918460018302840111640100000000831117156103c957600080fd5b91908080601f016020809104026020016040519081016040528093929190818152602001838380828437600081840152601f19601f820116905080830192505050505050509192919290803590602001909291905050506106e0565b005b6104e06004803603602081101561043d57600080fd5b810190808035906020019064010000000081111561045a57600080fd5b82018360208201111561046c57600080fd5b8035906020019184600183028401116401000000008311171561048e57600080fd5b91908080601f016020809104026020016040519081016040528093929190818152602001838380828437600081840152601f19601f820116905080830192505050505050509192919290505050610752565b6040518082815260200191505060405180910390f35b61052c6004803603604081101561050c57600080fd5b810190808035906020019092919080359060200190929190505050610780565b005b61053661078d565b6040518082815260200191505060405180910390f35b806000540160008190555050565b600181908060018154018082558091505060019003906000526020600020016000909190919091509080519060200190610595929190610796565b5050565b60006002826040518082805190602001908083835b602083106105d157805182526020820191506020810190506020830392506105ae565b6001836020036101000a0380198251168184511680821785525050505050509050019150509081526020016040518091039020549050919050565b600081600054029050919050565b6000600180549050905090565b60606001828154811061063657fe5b906000526020600020018054600181600116156101000203166002900480601f0160208091040260200160405190810160405280929190818152602001828054600181600116156101000203166002900480156106d45780601f106106a9576101008083540402835291602001916106d4565b820191906000526020600020905b8154815290600101906020018083116106b757829003601f168201915b50505050509050919050565b806002836040518082805190602001908083835b6020831061071757805182526020820191506020810190506020830392506106f4565b6001836020036101000a0380198251168184511680821785525050505050509050019150509081526020016040518091039020819055505050565b6002818051602081018201805184825260208301602085012081835280955050505050506000915090505481565b8082016000819055505050565b60008054905090565b828054600181600116156101000203166002900490600052602060002090601f016020900481019282601f106107d757805160ff1916838001178555610805565b82800160010185558215610805579182015b828111156108045782518255916020019190600101906107e9565b5b5090506108129190610816565b5090565b5b8082111561082f576000816000905550600101610817565b509056fea26469706673582212201d4a1418efed8627197cf39118e0768197aa0b9d5b64954ef965f4cd5da1660464736f6c63430007030033",
  "linkReferences": {},
  "deployedLinkReferences": {}
}